:0400000038C0FECF37
:10000400FDCFFCCFFBCFFACF6DC0F8CFF7CFF6CF43
:10001400F5CFF4CFF3CFF2CFF1CFF0CFEFCFEECFD8
:10002400EDCF1027E80364000A000100001000016E
:100034001000010000000000553D2000493D000073
:1000440080C001002D4E414E00494E460000040080
:1000540004003800040060013C0003006401400017
:1000640002009701440001009B0146000000F8943F
:10007400EE27ECBBF1E0FBBFEBBFE5BF8DE0A2E0F8
:10008400BB27ED938A95E9F780E094E0A0E6ED9331
:100094000197E9F7E2E5F0E085919591009761F029
:1000A400A591B59105901590BF01F00105900D92B1
:1000B4000197E1F7FB01F0CFEFE5EDBFE4E0EEBF20
:1000C400C0E6D1E096C0E0E0EFBDE5E0EEBD33D29E
:1000D400E0E0E7BDE6BDEBBDE0EDEABDE0E0E9BD93
:1000E400E8BD08950A921A92FA926A937A938A93CF
:1000F4009A93AA93BA93EA93FA93EFB7EA93E091A7
:100104006B01F0916C0160916D0170916E0198D258
:10011400E1E0EA93A3E8B1E027D1E0E0EA93A0E0CC
:10012400C0D0A0E6B1E0E9D0E3E0EA93A0E0B9D022
:10013400A3E8B1E0E2D0E0916701F0916801609139
:10014400690170916A017CD2E2E0EA93AFE6B1E022
:100154000BD1E0E0EA93A1E0A4D0A4E6B1E0CDD0D5
:10016400E3E0EA93A1E09DD0AFE6B1E0C6D0E0E0E1
:10017400E0936701E0936801E0936901E0936A0109
:10018400E0936B01E0936C01E0936D01E0936E01E9
:10019400D2D1E991EFBFF991E991B991A9919991DE
:1001A400899179916991F990199009901895E0E2F3
:1001B400E7B9E3E8E6B9E0E0E0BF0895EFEFE7BBB5
:1001C400E0E0E8BBECE7E4BBE0E0E5BBEFEFE1BB7C
:1001D400E0E0E2BB0895B3D1E12FE062E7B98BE13F
:1001E4008A95F1F7369A349BFECF349AE5B1F0E064
:1001F400B9C0E0E1E9BFE0E0E5BFEAB9D8DFDEDF9E
:1002040062DFACE086D07894A1E0E5DF2F01A0E0C6
:10021400E2DF3F0197D1ADECBCEC86EC91E495D1E3
:10022400E0936B01F0936C0160936D0170936E0128
:10023400F20188D1ADE3BAE08FE990E486D1E0938E
:100244006701F09368016093690170936A01DCCFE0
:10025400FFCF75D114FF02C0939A01C0939815FF84
:1002640002C0949A01C0949816FF02C0959A01C0E6
:10027400959817FF02C0969A01C096986FD1929AEA
:100284006DD192986BD16EC0AA93A881E2DFE88108
:10029400E295E883A881DDDF85E88A95F1F7219668
:1002A4000895A8D11A2F0A81E12FF0E0E956FE4FF4
:1002B400E081E00FAE2FE8DF902E812EA2D12396AD
:1002C4000895A2E04FD1ACE0DFDFA1E04BD1E0E044
:1002D4008E2E9E2E089533D11A3011F09B1438F0CF
:1002E400E0E0EA938394A82DDCDF1A30D9F19394EB
:1002F400909AA12FC9DF909835C07AD19D0136D14B
:10030400EC911E2FE03019F0A12FE5DFF8CF77D163
:1003140003C115D18B9A8C9A8D9A8E9A8A9A889A4F
:10032400899A929890989198B12EE12FE058E09391
:100334009901E12FE054E0939A01A4E1B0E03ED3A7
:1003440019D118D117D1A0E284DF88EC90E001978D
:10035400F1F7A8E299DFA4E097DFA5E895DFA6E02E
:1003640093DFAFDF199108952497E0E0E883E983F0
:10037400EA83EFE3EB833AD19D015A85ED85FE854F
:10038400EF3FAFEFFA0731F43A932A93A8E4B0E0D1
:10039400C5D081C0EF3FAFE7FA0731F43A932A930F
:1003A400A9E4B0E0BBD077C0AE85AA2332F4E9D08B
:1003B4005ED1ECD0DBD0EDE2EC93573008F056E0A0
:1003C400152FE12F1150E03021F0E5D0E9D0EED027
:1003D400F8CFF1D0F2D1DAD010E0E0E0F0E060E85C
:1003E4007FE3E4D0E8D0CAD268F0D5D0EDD0DED037
:1003F4001F5F173230F03A932A93ADE4B0E08ED009
:100404004AC0F0CF103021F4B1D0E0E3EC9323C024
:10041400E12F1150E030F9F0BED0C2D0A0E0B0E03E
:1004240080E09FE3CAD1DF01CB0168D0BFD0C3D045
:1004340061D250D10E2F3F932F93CCD0AF91BF9167
:10044400EC93E02FF0E0A7D07DD006D2C8D002D143
:10045400ADD19CD0DDCF5030D9F088D0EEE2EC9312
:10046400E52F5150E030A1F0BAD0AED08FD089D072
:1004740031D10E2F3F932F93ADD0AF91BF91EC9319
:10048400E02FF0E0ACD05ED0E5D090D17FD0E8CFC3
:10049400D901E0E0EC93B1D02F960895D6D07B81BA
:1004A4006A81F981E88177FB770F67FD7160972F87
:1004B4009E5781F078F0983190F4AA27BB278827BB
:1004C40008948795B795A7959A95D1F7EA23FB23C6
:1004D400682305C0E8947727EE27FF2766276F7700
:1004E400769508F4606877F9A991B9918991999101
:1004F400EA17FB076807790797FB0895A6D096D0FB
:10050400CDDF99D011F470D007C0EEF76DD0A0E024
:10051400B0E080E89FE34AD124960895BA93AA9361
:10052400E991F991A991B991CD0105900D9200201D
:10053400E1F7FC010895E0E0EDBDECBD08951A93E8
:100544001A2F089569D0FFD0089586D1DF01CB0119
:10055400E0E0F0E060E873E4CDD108958DE08A95A1
:10056400F1F7089591DEA3E0B0E028C2D9012F5F2E
:100574003F4F0895A0E36DDE88EC90E00197F1F71A
:100584000895EB85FC856D857E850895EB87FC8752
:100594006D877E870895AE81BF818885998508958A
:1005A400EDECFCEC6CEC7DE357D10895EE83FF8316
:1005B400688779870895EE81FF8168857985AB85A1
:1005C400BC858D859E850895E0E0F0E060E271E4ED
:1005D40043D108952F5F3F4FE02FE05D0895AB8531
:1005E400BC858D859E8508951CD008955A934A93A1
:1005F4003A932A931A930A9308955D814C813B811F
:100604002A81198108810895F09560957095E19586
:10061400FF4F6F4F7F4F08956F2F660F660B762F36
:100624000895E881F9816A817B810895A881B9815F
:100634008A819B810895E883F9836A837B83089583
:100644007A936A93FA93EA9308959A938A93BA935E
:10065400AA930895182E862F612D192E972F712D88
:100664001B2EBF2FF12D1A2EAE2FE12D089530979A
:100674006040704009F070580895552342F4503892
:1006840011F4E0FF04C03196691F791F6BF050E844
:10069400572711F45F93CFC05F3F31F0660F000C12
:1006A40057956795752F08955F9300200AF0CEC083
:1006B400C7C050E8192E1522880F991F9527550F8A
:1006C400879550E8072E0522660F771F7527550F6B
:1006D40067950895689401C0E8945F93F2DF7038D9
:1006E40018F07F3F08F4A7C056E1571BAAF45195B0
:1006F40058300EF4593030F0EFEFFFEF6FEF7FE733
:1007040077F91AC077275523B9F0EE0FFF1F661F3C
:10071400771F5A95D1F710C07727583028F0EF2F5C
:10072400F62F672F5850F9CF552331F076956795FA
:10073400F795E7955A95D1F700200AF465DF5F91A4
:100744000895689401C0E894309760407040B1F017
:10075400002426F0772312F4009456DF172E7EE14E
:10076400112032F07A95EE0FFF1F661F111CF9CF8E
:10077400EF2FF62F612D5F938ADF5F9108954F93DA
:10078400AF01FD01DA01AB01BC01CA01402D012C0E
:10079400142E4F910895EA0FFB1F681F0895E095EA
:1007A400F0956095EF5FFF4F6F4F08955F9381DF82
:1007B400903871F150E8152604C05F937ADF9038C1
:1007C40039F1703821F1572F591B2BF112F4D7DF6F
:1007D400FACF583118F0AA27BB278827583028F0B9
:1007E400AB2FB82F88275850F9CF552329F0869579
:1007F400B795A7955A95D9F7502D512572F0CBDFAF
:1008040038F46795F795E795739513F41FC0B7DF30
:100814003EDF5F910895D8F7FBCFEA1BFB0B680B13
:1008240051F010F40094BBDF662392F3EE0FFF1F28
:10083400661F7A95CBF7EE27FF27BF015F910895D6
:10084400EFEFFFEF6FE77FEF5F910895EFEFFFEFBB
:100854006FE77FE75F9108955F932BDF703859F35B
:10086400903849F301240894791F23F424F30020D9
:100874003AF3ECCF0F921F932F933F934F9311278B
:1008840022279927689FA0018F9F302D410D591F62
:100894006B9F300D411D591F8E9F27D0BF9F25D0C0
:1008A4006A9F23D0BE9F1DD0AF9F1BD0AE9F110D5A
:1008B400291F391F491F591FE32FF42F652F522F6A
:1008C4004F913F912F911F910F9066232AF0550F5E
:1008D400EE1FFF1F661F02C073954BF2CEDE5F91C1
:1008E4000895100D211D391F02C0200D311D491F0F
:1008F400591F08955F93DDDE703821F411200AF446
:100904009FCFA4CF903809F496CF01240894970B75
:100914001BF4D4F30020F3CF792F1F932F933F932D
:100924004F931124112722273327A90190E2AE17F0
:10093400BF078607410730F0AE1BBF0B860B410B88
:10094400089401C08894551F221F331F111CAA1F2D
:10095400BB1F881F441F9A9551F7F901612D4F91D0
:100964003F912F911F91662332F0550FEE1FFF1F09
:10097400661F7A954BF281DE5F91089599239AF070
:10098400772342F0971748F029F4AE17BF0786077C
:1009940020F031F0989488940895989408940895D8
:1009A4001894889408957723C2F7971798F3A9F7B2
:1009B400EA17FB07680788F399F3ECCF109639F030
:1009C400A89580ED97E00197F1F71197C9F708957D
:00000001FF
